{
  "contractName": "Dex",
  "abi": [
    {
      "inputs": [],
      "stateMutability": "nonpayable",
      "type": "constructor"
    },
    {
      "anonymous": false,
      "inputs": [
        {
          "indexed": false,
          "internalType": "uint256",
          "name": "tradeId",
          "type": "uint256"
        },
        {
          "indexed": false,
          "internalType": "uint256",
          "name": "orderId",
          "type": "uint256"
        },
        {
          "indexed": true,
          "internalType": "bytes32",
          "name": "ticker",
          "type": "bytes32"
        },
        {
          "indexed": true,
          "internalType": "address",
          "name": "trader1",
          "type": "address"
        },
        {
          "indexed": true,
          "internalType": "address",
          "name": "trader2",
          "type": "address"
        },
        {
          "indexed": false,
          "internalType": "uint256",
          "name": "amount",
          "type": "uint256"
        },
        {
          "indexed": false,
          "internalType": "uint256",
          "name": "price",
          "type": "uint256"
        },
        {
          "indexed": false,
          "internalType": "uint256",
          "name": "date",
          "type": "uint256"
        }
      ],
      "name": "NewTrade",
      "type": "event"
    },
    {
      "inputs": [],
      "name": "admin",
      "outputs": [
        {
          "internalType": "address",
          "name": "",
          "type": "address"
        }
      ],
      "stateMutability": "view",
      "type": "function"
    },
    {
      "inputs": [],
      "name": "nextOrderId",
      "outputs": [
        {
          "internalType": "uint256",
          "name": "",
          "type": "uint256"
        }
      ],
      "stateMutability": "view",
      "type": "function"
    },
    {
      "inputs": [],
      "name": "nextTradeId",
      "outputs": [
        {
          "internalType": "uint256",
          "name": "",
          "type": "uint256"
        }
      ],
      "stateMutability": "view",
      "type": "function"
    },
    {
      "inputs": [
        {
          "internalType": "bytes32",
          "name": "",
          "type": "bytes32"
        },
        {
          "internalType": "uint256",
          "name": "",
          "type": "uint256"
        },
        {
          "internalType": "uint256",
          "name": "",
          "type": "uint256"
        }
      ],
      "name": "orderBook",
      "outputs": [
        {
          "internalType": "uint256",
          "name": "id",
          "type": "uint256"
        },
        {
          "internalType": "address",
          "name": "trader",
          "type": "address"
        },
        {
          "internalType": "enum Dex.Side",
          "name": "side",
          "type": "uint8"
        },
        {
          "internalType": "bytes32",
          "name": "ticker",
          "type": "bytes32"
        },
        {
          "internalType": "uint256",
          "name": "amount",
          "type": "uint256"
        },
        {
          "internalType": "uint256",
          "name": "filled",
          "type": "uint256"
        },
        {
          "internalType": "uint256",
          "name": "price",
          "type": "uint256"
        },
        {
          "internalType": "uint256",
          "name": "date",
          "type": "uint256"
        }
      ],
      "stateMutability": "view",
      "type": "function"
    },
    {
      "inputs": [
        {
          "internalType": "uint256",
          "name": "",
          "type": "uint256"
        }
      ],
      "name": "tokenList",
      "outputs": [
        {
          "internalType": "bytes32",
          "name": "",
          "type": "bytes32"
        }
      ],
      "stateMutability": "view",
      "type": "function"
    },
    {
      "inputs": [
        {
          "internalType": "bytes32",
          "name": "",
          "type": "bytes32"
        }
      ],
      "name": "tokens",
      "outputs": [
        {
          "internalType": "bytes32",
          "name": "ticker",
          "type": "bytes32"
        },
        {
          "internalType": "address",
          "name": "tokenAddress",
          "type": "address"
        }
      ],
      "stateMutability": "view",
      "type": "function"
    },
    {
      "inputs": [
        {
          "internalType": "address",
          "name": "",
          "type": "address"
        },
        {
          "internalType": "bytes32",
          "name": "",
          "type": "bytes32"
        }
      ],
      "name": "traderBalances",
      "outputs": [
        {
          "internalType": "uint256",
          "name": "",
          "type": "uint256"
        }
      ],
      "stateMutability": "view",
      "type": "function"
    },
    {
      "inputs": [
        {
          "internalType": "bytes32",
          "name": "ticker",
          "type": "bytes32"
        },
        {
          "internalType": "enum Dex.Side",
          "name": "side",
          "type": "uint8"
        }
      ],
      "name": "getOrders",
      "outputs": [
        {
          "components": [
            {
              "internalType": "uint256",
              "name": "id",
              "type": "uint256"
            },
            {
              "internalType": "address",
              "name": "trader",
              "type": "address"
            },
            {
              "internalType": "enum Dex.Side",
              "name": "side",
              "type": "uint8"
            },
            {
              "internalType": "bytes32",
              "name": "ticker",
              "type": "bytes32"
            },
            {
              "internalType": "uint256",
              "name": "amount",
              "type": "uint256"
            },
            {
              "internalType": "uint256",
              "name": "filled",
              "type": "uint256"
            },
            {
              "internalType": "uint256",
              "name": "price",
              "type": "uint256"
            },
            {
              "internalType": "uint256",
              "name": "date",
              "type": "uint256"
            }
          ],
          "internalType": "struct Dex.Order[]",
          "name": "",
          "type": "tuple[]"
        }
      ],
      "stateMutability": "view",
      "type": "function"
    },
    {
      "inputs": [],
      "name": "getTokens",
      "outputs": [
        {
          "components": [
            {
              "internalType": "bytes32",
              "name": "ticker",
              "type": "bytes32"
            },
            {
              "internalType": "address",
              "name": "tokenAddress",
              "type": "address"
            }
          ],
          "internalType": "struct Dex.Token[]",
          "name": "",
          "type": "tuple[]"
        }
      ],
      "stateMutability": "view",
      "type": "function"
    },
    {
      "inputs": [
        {
          "internalType": "bytes32",
          "name": "ticker",
          "type": "bytes32"
        },
        {
          "internalType": "address",
          "name": "tokenAddress",
          "type": "address"
        }
      ],
      "name": "addToken",
      "outputs": [],
      "stateMutability": "nonpayable",
      "type": "function"
    },
    {
      "inputs": [
        {
          "internalType": "uint256",
          "name": "amount",
          "type": "uint256"
        },
        {
          "internalType": "bytes32",
          "name": "ticker",
          "type": "bytes32"
        }
      ],
      "name": "deposit",
      "outputs": [],
      "stateMutability": "nonpayable",
      "type": "function"
    },
    {
      "inputs": [
        {
          "internalType": "uint256",
          "name": "amount",
          "type": "uint256"
        },
        {
          "internalType": "bytes32",
          "name": "ticker",
          "type": "bytes32"
        }
      ],
      "name": "withdraw",
      "outputs": [],
      "stateMutability": "nonpayable",
      "type": "function"
    },
    {
      "inputs": [
        {
          "internalType": "bytes32",
          "name": "ticker",
          "type": "bytes32"
        },
        {
          "internalType": "uint256",
          "name": "amount",
          "type": "uint256"
        },
        {
          "internalType": "uint256",
          "name": "price",
          "type": "uint256"
        },
        {
          "internalType": "enum Dex.Side",
          "name": "side",
          "type": "uint8"
        }
      ],
      "name": "createLimitOrder",
      "outputs": [],
      "stateMutability": "nonpayable",
      "type": "function"
    },
    {
      "inputs": [
        {
          "internalType": "bytes32",
          "name": "ticker",
          "type": "bytes32"
        },
        {
          "internalType": "uint256",
          "name": "amount",
          "type": "uint256"
        },
        {
          "internalType": "enum Dex.Side",
          "name": "side",
          "type": "uint8"
        }
      ],
      "name": "createMarketOrder",
      "outputs": [],
      "stateMutability": "nonpayable",
      "type": "function"
    }
  ],
  "bytecode": "0x608060405234801561001057600080fd5b5033600460006101000a81548173ffffffffffffffffffffffffffffffffffffffff021916908373ffffffffffffffffffffffffffffffffffffffff16021790555061305e806100616000396000f3fe608060405234801561001057600080fd5b50600436106100ea5760003560e01c80639776aacf1161008c578063aa6ca80811610066578063aa6ca80814610277578063c9630cb014610295578063d9c0c950146102b1578063f851a440146102cd576100ea565b80639776aacf1461020f5780639ead72221461022b578063a8d2021a1461025b576100ea565b806372ce957e116100c857806372ce957e146101745780637f2c6246146101a4578063813ad083146101c0578063904194a3146101de576100ea565b80630bb431b6146100ef5780632a58b3301461012657806346e9658b14610144575b600080fd5b6101096004803603810190610104919061232e565b6102eb565b60405161011d989796959493929190612457565b60405180910390f35b61012e61038a565b60405161013b91906124d5565b60405180910390f35b61015e60048036038101906101599190612515565b610390565b60405161016b91906126e3565b60405180910390f35b61018e60048036038101906101899190612731565b6104f4565b60405161019b91906124d5565b60405180910390f35b6101be60048036038101906101b99190612771565b610519565b005b6101c8611287565b6040516101d591906124d5565b60405180910390f35b6101f860048036038101906101f391906127c4565b61128d565b6040516102069291906127f1565b60405180910390f35b6102296004803603810190610224919061281a565b6112d1565b005b6102456004803603810190610240919061285a565b61141f565b6040516102529190612887565b60405180910390f35b610275600480360381019061027091906128a2565b611443565b005b61027f61169c565b60405161028c91906129c0565b60405180910390f35b6102af60048036038101906102aa91906128a2565b6117f5565b005b6102cb60048036038101906102c691906129e2565b6119bd565b005b6102d5612264565b6040516102e29190612a49565b60405180910390f35b6003602052826000526040600020602052816000526040600020818154811061031357600080fd5b906000526020600020906007020160009250925050508060000154908060010160009054906101000a900473ffffffffffffffffffffffffffffffffffffffff16908060010160149054906101000a900460ff16908060020154908060030154908060040154908060050154908060060154905088565b60055481565b60606003600084815260200190815260200160002060008360018111156103ba576103b96123d1565b5b8152602001908152602001600020805480602002602001604051908101604052809291908181526020016000905b828210156104e8578382906000526020600020906007020160405180610100016040529081600082015481526020016001820160009054906101000a900473ffffffffffffffffffffffffffffffffffffffff1673ffffffffffffffffffffffffffffffffffffffff1673ffffffffffffffffffffffffffffffffffffffff1681526020016001820160149054906101000a900460ff166001811115610491576104906123d1565b5b60018111156104a3576104a26123d1565b5b815260200160028201548152602001600382015481526020016004820154815260200160058201548152602001600682015481525050815260200190600101906103e8565b50505050905092915050565b6002602052816000526040600020602052806000526040600020600091509150505481565b82600073ffffffffffffffffffffffffffffffffffffffff1660008083815260200190815260200160002060010160009054906101000a900473ffffffffffffffffffffffffffffffffffffffff1673ffffffffffffffffffffffffffffffffffffffff1614156105bf576040517f08c379a00000000000000000000000000000000000000000000000000000000081526004016105b690612ac1565b60405180910390fd5b837f4441490000000000000000000000000000000000000000000000000000000000811415610623576040517f08c379a000000000000000000000000000000000000000000000000000000000815260040161061a90612b2d565b60405180910390fd5b600180811115610636576106356123d1565b5b836001811115610649576106486123d1565b5b14156106e35783600260003373ffffffffffffffffffffffffffffffffffffffff1673ffffffffffffffffffffffffffffffffffffffff16815260200190815260200160002060008781526020019081526020016000205410156106e2576040517f08c379a00000000000000000000000000000000000000000000000000000000081526004016106d990612b99565b60405180910390fd5b5b600060036000878152602001908152602001600020600080600181111561070d5761070c6123d1565b5b8660018111156107205761071f6123d1565b5b1461072c57600061072f565b60015b6001811115610741576107406123d1565b5b815260200190815260200160002090506000808690505b82805490508210801561076b5750600081115b1561100e57600083838154811061078557610784612bb9565b5b9060005260206000209060070201600401548484815481106107aa576107a9612bb9565b5b9060005260206000209060070201600301546107c69190612c17565b905060008183116107d757826107d9565b815b905080836107e79190612c17565b9250808585815481106107fd576107fc612bb9565b5b9060005260206000209060070201600401600082825461081d9190612c4b565b925050819055503373ffffffffffffffffffffffffffffffffffffffff1685858154811061084e5761084d612bb9565b5b906000526020600020906007020160010160009054906101000a900473ffffffffffffffffffffffffffffffffffffffff1673ffffffffffffffffffffffffffffffffffffffff168b7fdb0c486e680ba8026643e6a85f8d157b5e7bcd4b32b54d564542570a9eb204166006548989815481106108ce576108cd612bb9565b5b906000526020600020906007020160000154868b8b815481106108f4576108f3612bb9565b5b90600052602060002090600702016005015442604051610918959493929190612ca1565b60405180910390a4600180811115610933576109326123d1565b5b886001811115610946576109456123d1565b5b1415610c0f5780600260003373ffffffffffffffffffffffffffffffffffffffff1673ffffffffffffffffffffffffffffffffffffffff16815260200190815260200160002060008c815260200190815260200160002060008282546109ac9190612c17565b925050819055508484815481106109c6576109c5612bb9565b5b906000526020600020906007020160050154816109e39190612cf4565b600260003373ffffffffffffffffffffffffffffffffffffffff1673ffffffffffffffffffffffffffffffffffffffff16815260200190815260200160002060007f444149000000000000000000000000000000000000000000000000000000000081526020019081526020016000206000828254610a629190612c4b565b925050819055508060026000878781548110610a8157610a80612bb9565b5b906000526020600020906007020160010160009054906101000a900473ffffffffffffffffffffffffffffffffffffffff1673ffffffffffffffffffffffffffffffffffffffff1673ffffffffffffffffffffffffffffffffffffffff16815260200190815260200160002060008c81526020019081526020016000206000828254610b0d9190612c4b565b92505081905550848481548110610b2757610b26612bb9565b5b90600052602060002090600702016005015481610b449190612cf4565b60026000878781548110610b5b57610b5a612bb9565b5b906000526020600020906007020160010160009054906101000a900473ffffffffffffffffffffffffffffffffffffffff1673ffffffffffffffffffffffffffffffffffffffff1673ffffffffffffffffffffffffffffffffffffffff16815260200190815260200160002060007f444149000000000000000000000000000000000000000000000000000000000081526020019081526020016000206000828254610c079190612c17565b925050819055505b60006001811115610c2357610c226123d1565b5b886001811115610c3657610c356123d1565b5b1415610fe157848481548110610c4f57610c4e612bb9565b5b90600052602060002090600702016005015481610c6c9190612cf4565b600260003373ffffffffffffffffffffffffffffffffffffffff1673ffffffffffffffffffffffffffffffffffffffff16815260200190815260200160002060007f44414900000000000000000000000000000000000000000000000000000000008152602001908152602001600020541015610d1e576040517f08c379a0000000000000000000000000000000000000000000000000000000008152600401610d1590612d9a565b60405180910390fd5b80600260003373ffffffffffffffffffffffffffffffffffffffff1673ffffffffffffffffffffffffffffffffffffffff16815260200190815260200160002060008c81526020019081526020016000206000828254610d7e9190612c4b565b92505081905550848481548110610d9857610d97612bb9565b5b90600052602060002090600702016005015481610db59190612cf4565b600260003373ffffffffffffffffffffffffffffffffffffffff1673ffffffffffffffffffffffffffffffffffffffff16815260200190815260200160002060007f444149000000000000000000000000000000000000000000000000000000000081526020019081526020016000206000828254610e349190612c17565b925050819055508060026000878781548110610e5357610e52612bb9565b5b906000526020600020906007020160010160009054906101000a900473ffffffffffffffffffffffffffffffffffffffff1673ffffffffffffffffffffffffffffffffffffffff1673ffffffffffffffffffffffffffffffffffffffff16815260200190815260200160002060008c81526020019081526020016000206000828254610edf9190612c17565b92505081905550848481548110610ef957610ef8612bb9565b5b90600052602060002090600702016005015481610f169190612cf4565b60026000878781548110610f2d57610f2c612bb9565b5b906000526020600020906007020160010160009054906101000a900473ffffffffffffffffffffffffffffffffffffffff1673ffffffffffffffffffffffffffffffffffffffff1673ffffffffffffffffffffffffffffffffffffffff16815260200190815260200160002060007f444149000000000000000000000000000000000000000000000000000000000081526020019081526020016000206000828254610fd99190612c4b565b925050819055505b60066000815480929190610ff490612dba565b9190505550838061100490612dba565b9450505050610758565b600091505b82805490508210801561106d575082828154811061103457611033612bb9565b5b90600052602060002090600702016003015483838154811061105957611058612bb9565b5b906000526020600020906007020160040154145b1561127d5760008290505b600184805490506110899190612c17565b8110156111d4578360018261109e9190612c4b565b815481106110af576110ae612bb9565b5b90600052602060002090600702018482815481106110d0576110cf612bb9565b5b9060005260206000209060070201600082015481600001556001820160009054906101000a900473ffffffffffffffffffffffffffffffffffffffff168160010160006101000a81548173ffffffffffffffffffffffffffffffffffffffff021916908373ffffffffffffffffffffffffffffffffffffffff1602179055506001820160149054906101000a900460ff168160010160146101000a81548160ff02191690836001811115611187576111866123d1565b5b0217905550600282015481600201556003820154816003015560048201548160040155600582015481600501556006820154816006015590505080806111cc90612dba565b915050611078565b50828054806111e6576111e5612e03565b5b60019003818190600052602060002090600702016000808201600090556001820160006101000a81549073ffffffffffffffffffffffffffffffffffffffff02191690556001820160146101000a81549060ff02191690556002820160009055600382016000905560048201600090556005820160009055600682016000905550509055818061127590612dba565b925050611013565b5050505050505050565b60065481565b60006020528060005260406000206000915090508060000154908060010160009054906101000a900473ffffffffffffffffffffffffffffffffffffffff16905082565b600460009054906101000a900473ffffffffffffffffffffffffffffffffffffffff1673ffffffffffffffffffffffffffffffffffffffff163373ffffffffffffffffffffffffffffffffffffffff1614611361576040517f08c379a000000000000000000000000000000000000000000000000000000000815260040161135890612e7e565b60405180910390fd5b60405180604001604052808381526020018273ffffffffffffffffffffffffffffffffffffffff168152506000808481526020019081526020016000206000820151816000015560208201518160010160006101000a81548173ffffffffffffffffffffffffffffffffffffffff021916908373ffffffffffffffffffffffffffffffffffffffff16021790555090505060018290806001815401808255809150506001900390600052602060002001600090919091909150555050565b6001818154811061142f57600080fd5b906000526020600020016000915090505481565b80600073ffffffffffffffffffffffffffffffffffffffff1660008083815260200190815260200160002060010160009054906101000a900473ffffffffffffffffffffffffffffffffffffffff1673ffffffffffffffffffffffffffffffffffffffff1614156114e9576040517f08c379a00000000000000000000000000000000000000000000000000000000081526004016114e090612ac1565b60405180910390fd5b82600260003373ffffffffffffffffffffffffffffffffffffffff1673ffffffffffffffffffffffffffffffffffffffff168152602001908152602001600020600084815260200190815260200160002054101561157c576040517f08c379a000000000000000000000000000000000000000000000000000000000815260040161157390612eea565b60405180910390fd5b82600260003373ffffffffffffffffffffffffffffffffffffffff1673ffffffffffffffffffffffffffffffffffffffff168152602001908152602001600020600084815260200190815260200160002060008282546115dc9190612c17565b9250508190555060008083815260200190815260200160002060010160009054906101000a900473ffffffffffffffffffffffffffffffffffffffff1673ffffffffffffffffffffffffffffffffffffffff1663a9059cbb33856040518363ffffffff1660e01b8152600401611653929190612f0a565b6020604051808303816000875af1158015611672573d6000803e3d6000fd5b505050506040513d601f19601f820116820180604052508101906116969190612f6b565b50505050565b6060600060018054905067ffffffffffffffff8111156116bf576116be612f98565b5b6040519080825280602002602001820160405280156116f857816020015b6116e561228a565b8152602001906001900390816116dd5790505b50905060005b6001805490508110156117ed5760405180604001604052806000806001858154811061172d5761172c612bb9565b5b906000526020600020015481526020019081526020016000206000015481526020016000806001858154811061176657611765612bb9565b5b9060005260206000200154815260200190815260200160002060010160009054906101000a900473ffffffffffffffffffffffffffffffffffffffff1673ffffffffffffffffffffffffffffffffffffffff168152508282815181106117cf576117ce612bb9565b5b602002602001018190525080806117e590612dba565b9150506116fe565b508091505090565b80600073ffffffffffffffffffffffffffffffffffffffff1660008083815260200190815260200160002060010160009054906101000a900473ffffffffffffffffffffffffffffffffffffffff1673ffffffffffffffffffffffffffffffffffffffff16141561189b576040517f08c379a000000000000000000000000000000000000000000000000000000000815260040161189290612ac1565b60405180910390fd5b60008083815260200190815260200160002060010160009054906101000a900473ffffffffffffffffffffffffffffffffffffffff1673ffffffffffffffffffffffffffffffffffffffff166323b872dd3330866040518463ffffffff1660e01b815260040161190d93929190612fc7565b6020604051808303816000875af115801561192c573d6000803e3d6000fd5b505050506040513d601f19601f820116820180604052508101906119509190612f6b565b5082600260003373ffffffffffffffffffffffffffffffffffffffff1673ffffffffffffffffffffffffffffffffffffffff168152602001908152602001600020600084815260200190815260200160002060008282546119b19190612c4b565b92505081905550505050565b83600073ffffffffffffffffffffffffffffffffffffffff1660008083815260200190815260200160002060010160009054906101000a900473ffffffffffffffffffffffffffffffffffffffff1673ffffffffffffffffffffffffffffffffffffffff161415611a63576040517f08c379a0000000000000000000000000000000000000000000000000000000008152600401611a5a90612ac1565b60405180910390fd5b847f4441490000000000000000000000000000000000000000000000000000000000811415611ac7576040517f08c379a0000000000000000000000000000000000000000000000000000000008152600401611abe90612b2d565b60405180910390fd5b600180811115611ada57611ad96123d1565b5b836001811115611aed57611aec6123d1565b5b1415611b8b5784600260003373ffffffffffffffffffffffffffffffffffffffff1673ffffffffffffffffffffffffffffffffffffffff1681526020019081526020016000206000888152602001908152602001600020541015611b86576040517f08c379a0000000000000000000000000000000000000000000000000000000008152600401611b7d90612b99565b60405180910390fd5b611c4a565b8385611b979190612cf4565b600260003373ffffffffffffffffffffffffffffffffffffffff1673ffffffffffffffffffffffffffffffffffffffff16815260200190815260200160002060007f44414900000000000000000000000000000000000000000000000000000000008152602001908152602001600020541015611c49576040517f08c379a0000000000000000000000000000000000000000000000000000000008152600401611c4090612d9a565b60405180910390fd5b5b6000600360008881526020019081526020016000206000856001811115611c7457611c736123d1565b5b815260200190815260200160002090508060405180610100016040528060055481526020013373ffffffffffffffffffffffffffffffffffffffff168152602001866001811115611cc857611cc76123d1565b5b8152602001898152602001888152602001600081526020018781526020014281525090806001815401808255809150506001900390600052602060002090600702016000909190919091506000820151816000015560208201518160010160006101000a81548173ffffffffffffffffffffffffffffffffffffffff021916908373ffffffffffffffffffffffffffffffffffffffff16021790555060408201518160010160146101000a81548160ff02191690836001811115611d8f57611d8e6123d1565b5b0217905550606082015181600201556080820151816003015560a0820151816004015560c0820151816005015560e082015181600601555050600080828054905011611ddc576000611dee565b60018280549050611ded9190612c17565b5b90505b60008111156122425760006001811115611e0e57611e0d6123d1565b5b856001811115611e2157611e206123d1565b5b148015611e815750818181548110611e3c57611e3b612bb9565b5b90600052602060002090600702016005015482600183611e5c9190612c17565b81548110611e6d57611e6c612bb9565b5b906000526020600020906007020160050154115b15611e8b57612242565b600180811115611e9e57611e9d6123d1565b5b856001811115611eb157611eb06123d1565b5b148015611f115750818181548110611ecc57611ecb612bb9565b5b90600052602060002090600702016005015482600183611eec9190612c17565b81548110611efd57611efc612bb9565b5b906000526020600020906007020160050154105b15611f1b57612242565b600082600183611f2b9190612c17565b81548110611f3c57611f3b612bb9565b5b906000526020600020906007020160405180610100016040529081600082015481526020016001820160009054906101000a900473ffffffffffffffffffffffffffffffffffffffff1673ffffffffffffffffffffffffffffffffffffffff1673ffffffffffffffffffffffffffffffffffffffff1681526020016001820160149054906101000a900460ff166001811115611fdb57611fda6123d1565b5b6001811115611fed57611fec6123d1565b5b815260200160028201548152602001600382015481526020016004820154815260200160058201548152602001600682015481525050905082828154811061203857612037612bb9565b5b9060005260206000209060070201836001846120549190612c17565b8154811061206557612064612bb9565b5b9060005260206000209060070201600082015481600001556001820160009054906101000a900473ffffffffffffffffffffffffffffffffffffffff168160010160006101000a81548173ffffffffffffffffffffffffffffffffffffffff021916908373ffffffffffffffffffffffffffffffffffffffff1602179055506001820160149054906101000a900460ff168160010160146101000a81548160ff0219169083600181111561211c5761211b6123d1565b5b021790555060028201548160020155600382015481600301556004820154816004015560058201548160050155600682015481600601559050508083838154811061216a57612169612bb9565b5b90600052602060002090600702016000820151816000015560208201518160010160006101000a81548173ffffffffffffffffffffffffffffffffffffffff021916908373ffffffffffffffffffffffffffffffffffffffff16021790555060408201518160010160146101000a81548160ff021916908360018111156121f4576121f36123d1565b5b0217905550606082015181600201556080820151816003015560a0820151816004015560c0820151816005015560e08201518160060155905050818061223990612ffe565b92505050611df1565b6005600081548092919061225590612dba565b91905055505050505050505050565b600460009054906101000a900473ffffffffffffffffffffffffffffffffffffffff1681565b604051806040016040528060008019168152602001600073ffffffffffffffffffffffffffffffffffffffff1681525090565b600080fd5b6000819050919050565b6122d5816122c2565b81146122e057600080fd5b50565b6000813590506122f2816122cc565b92915050565b6000819050919050565b61230b816122f8565b811461231657600080fd5b50565b60008135905061232881612302565b92915050565b600080600060608486031215612347576123466122bd565b5b6000612355868287016122e3565b935050602061236686828701612319565b925050604061237786828701612319565b9150509250925092565b61238a816122f8565b82525050565b600073ffffffffffffffffffffffffffffffffffffffff82169050919050565b60006123bb82612390565b9050919050565b6123cb816123b0565b82525050565b7f4e487b7100000000000000000000000000000000000000000000000000000000600052602160045260246000fd5b60028110612411576124106123d1565b5b50565b600081905061242282612400565b919050565b600061243282612414565b9050919050565b61244281612427565b82525050565b612451816122c2565b82525050565b60006101008201905061246d600083018b612381565b61247a602083018a6123c2565b6124876040830189612439565b6124946060830188612448565b6124a16080830187612381565b6124ae60a0830186612381565b6124bb60c0830185612381565b6124c860e0830184612381565b9998505050505050505050565b60006020820190506124ea6000830184612381565b92915050565b600281106124fd57600080fd5b50565b60008135905061250f816124f0565b92915050565b6000806040838503121561252c5761252b6122bd565b5b600061253a858286016122e3565b925050602061254b85828601612500565b9150509250929050565b600081519050919050565b600082825260208201905092915050565b6000819050602082019050919050565b61258a816122f8565b82525050565b612599816123b0565b82525050565b6125a881612427565b82525050565b6125b7816122c2565b82525050565b610100820160008201516125d46000850182612581565b5060208201516125e76020850182612590565b5060408201516125fa604085018261259f565b50606082015161260d60608501826125ae565b5060808201516126206080850182612581565b5060a082015161263360a0850182612581565b5060c082015161264660c0850182612581565b5060e082015161265960e0850182612581565b50505050565b600061266b83836125bd565b6101008301905092915050565b6000602082019050919050565b600061269082612555565b61269a8185612560565b93506126a583612571565b8060005b838110156126d65781516126bd888261265f565b97506126c883612678565b9250506001810190506126a9565b5085935050505092915050565b600060208201905081810360008301526126fd8184612685565b905092915050565b61270e816123b0565b811461271957600080fd5b50565b60008135905061272b81612705565b92915050565b60008060408385031215612748576127476122bd565b5b60006127568582860161271c565b9250506020612767858286016122e3565b9150509250929050565b60008060006060848603121561278a576127896122bd565b5b6000612798868287016122e3565b93505060206127a986828701612319565b92505060406127ba86828701612500565b9150509250925092565b6000602082840312156127da576127d96122bd565b5b60006127e8848285016122e3565b91505092915050565b60006040820190506128066000830185612448565b61281360208301846123c2565b9392505050565b60008060408385031215612831576128306122bd565b5b600061283f858286016122e3565b92505060206128508582860161271c565b9150509250929050565b6000602082840312156128705761286f6122bd565b5b600061287e84828501612319565b91505092915050565b600060208201905061289c6000830184612448565b92915050565b600080604083850312156128b9576128b86122bd565b5b60006128c785828601612319565b92505060206128d8858286016122e3565b9150509250929050565b600081519050919050565b600082825260208201905092915050565b6000819050602082019050919050565b60408201600082015161292460008501826125ae565b5060208201516129376020850182612590565b50505050565b6000612949838361290e565b60408301905092915050565b6000602082019050919050565b600061296d826128e2565b61297781856128ed565b9350612982836128fe565b8060005b838110156129b357815161299a888261293d565b97506129a583612955565b925050600181019050612986565b5085935050505092915050565b600060208201905081810360008301526129da8184612962565b905092915050565b600080600080608085870312156129fc576129fb6122bd565b5b6000612a0a878288016122e3565b9450506020612a1b87828801612319565b9350506040612a2c87828801612319565b9250506060612a3d87828801612500565b91505092959194509250565b6000602082019050612a5e60008301846123c2565b92915050565b600082825260208201905092915050565b7f7468697320746f6b656e20646f6573206e6f7420657869737400000000000000600082015250565b6000612aab601983612a64565b9150612ab682612a75565b602082019050919050565b60006020820190508181036000830152612ada81612a9e565b9050919050565b7f63616e6e6f742074726164652044414900000000000000000000000000000000600082015250565b6000612b17601083612a64565b9150612b2282612ae1565b602082019050919050565b60006020820190508181036000830152612b4681612b0a565b9050919050565b7f746f6b656e2062616c616e636520746f6f206c6f770000000000000000000000600082015250565b6000612b83601583612a64565b9150612b8e82612b4d565b602082019050919050565b60006020820190508181036000830152612bb281612b76565b9050919050565b7f4e487b7100000000000000000000000000000000000000000000000000000000600052603260045260246000fd5b7f4e487b7100000000000000000000000000000000000000000000000000000000600052601160045260246000fd5b6000612c22826122f8565b9150612c2d836122f8565b925082821015612c4057612c3f612be8565b5b828203905092915050565b6000612c56826122f8565b9150612c61836122f8565b9250827fffffffffffffffffffffffffffffffffffffffffffffffffffffffffffffffff03821115612c9657612c95612be8565b5b828201905092915050565b600060a082019050612cb66000830188612381565b612cc36020830187612381565b612cd06040830186612381565b612cdd6060830185612381565b612cea6080830184612381565b9695505050505050565b6000612cff826122f8565b9150612d0a836122f8565b9250817fffffffffffffffffffffffffffffffffffffffffffffffffffffffffffffffff0483118215151615612d4357612d42612be8565b5b828202905092915050565b7f6461692062616c616e636520746f6f206c6f7700000000000000000000000000600082015250565b6000612d84601383612a64565b9150612d8f82612d4e565b602082019050919050565b60006020820190508181036000830152612db381612d77565b9050919050565b6000612dc5826122f8565b91507fffffffffffffffffffffffffffffffffffffffffffffffffffffffffffffffff821415612df857612df7612be8565b5b600182019050919050565b7f4e487b7100000000000000000000000000000000000000000000000000000000600052603160045260246000fd5b7f6f6e6c792061646d696e00000000000000000000000000000000000000000000600082015250565b6000612e68600a83612a64565b9150612e7382612e32565b602082019050919050565b60006020820190508181036000830152612e9781612e5b565b9050919050565b7f62616c616e636520746f6f206c6f770000000000000000000000000000000000600082015250565b6000612ed4600f83612a64565b9150612edf82612e9e565b602082019050919050565b60006020820190508181036000830152612f0381612ec7565b9050919050565b6000604082019050612f1f60008301856123c2565b612f2c6020830184612381565b9392505050565b60008115159050919050565b612f4881612f33565b8114612f5357600080fd5b50565b600081519050612f6581612f3f565b92915050565b600060208284031215612f8157612f806122bd565b5b6000612f8f84828501612f56565b91505092915050565b7f4e487b7100000000000000000000000000000000000000000000000000000000600052604160045260246000fd5b6000606082019050612fdc60008301866123c2565b612fe960208301856123c2565b612ff66040830184612381565b949350505050565b6000613009826122f8565b9150600082141561301d5761301c612be8565b5b60018203905091905056fea264697066735822122025d230457183aa6508660e7a135915b3abe02c4321f6617e6f6633ef7998cd7f64736f6c634300080a0033",
  "immutableReferences": {},
  "source": "//SPDX-License-Identifier: MIT\n\npragma solidity ^0.8.1;\npragma experimental ABIEncoderV2;\n\nimport '@openzeppelin/contracts/token/ERC20/IERC20.sol';\n//import '@openzeppelin/contracts/math/SafeMath.sol';\n\ncontract Dex {\n\n   // using SafeMath for uint;\n       \n    enum Side {\n        BUY,\n        SELL\n    }\n    \n    struct Token {\n        bytes32 ticker;\n        address tokenAddress;\n    }\n    \n    struct Order {\n        uint id;\n        address trader;\n        Side side;\n        bytes32 ticker;\n        uint amount;\n        uint filled;\n        uint price;\n        uint date;\n    }\n    \n    mapping(bytes32 => Token) public tokens;\n    bytes32[] public tokenList;\n    mapping(address => mapping(bytes32 => uint)) public traderBalances;\n    mapping(bytes32 => mapping(uint => Order[])) public orderBook;\n    address public admin;\n    uint public nextOrderId;\n    uint public nextTradeId;\n    bytes32 constant DAI = bytes32('DAI');\n    \n    event NewTrade(\n        uint tradeId,\n        uint orderId,\n        bytes32 indexed ticker,\n        address indexed trader1,\n        address indexed trader2,\n        uint amount,\n        uint price,\n        uint date\n    );\n    \n    constructor()  {\n        admin = msg.sender;\n    }\n\n    function getOrders(\n      bytes32 ticker, \n      Side side) \n      external \n      view\n      returns(Order[] memory) {\n      return orderBook[ticker][uint(side)];\n    }\n\n    function getTokens() \n      external \n      view \n      returns(Token[] memory) {\n      Token[] memory _tokens = new Token[](tokenList.length);\n      for (uint i = 0; i < tokenList.length; i++) {\n        _tokens[i] = Token(\n          tokens[tokenList[i]].ticker,\n          tokens[tokenList[i]].tokenAddress\n        );\n      }\n      return _tokens;\n    }\n    \n    function addToken(\n        bytes32 ticker,\n        address tokenAddress)\n        onlyAdmin()\n        external {\n        tokens[ticker] = Token(ticker, tokenAddress);\n        tokenList.push(ticker);\n    }\n    \n    function deposit(\n        uint amount,\n        bytes32 ticker)\n        tokenExist(ticker)\n        external {\n        IERC20(tokens[ticker].tokenAddress).transferFrom(\n            msg.sender,\n            address(this),\n            amount\n        );\n        traderBalances[msg.sender][ticker] += amount;\n    }\n    \n    function withdraw(\n        uint amount,\n        bytes32 ticker)\n        tokenExist(ticker)\n        external {\n        require(\n            traderBalances[msg.sender][ticker] >= amount,\n            'balance too low'\n        ); \n        traderBalances[msg.sender][ticker] -= amount;\n        IERC20(tokens[ticker].tokenAddress).transfer(msg.sender, amount);\n    }\n    \n    function createLimitOrder(\n        bytes32 ticker,\n        uint amount,\n        uint price,\n        Side side)\n        tokenExist(ticker)\n        tokenIsNotDai(ticker)\n        external {\n        if(side == Side.SELL) {\n            require(\n                traderBalances[msg.sender][ticker] >= amount, \n                'token balance too low'\n            );\n        } else {\n            require(\n                traderBalances[msg.sender][DAI] >= amount*price,\n                'dai balance too low'\n            );\n        }\n        Order[] storage orders = orderBook[ticker][uint(side)];\n        orders.push(Order(\n            nextOrderId,\n            msg.sender,\n            side,\n            ticker,\n            amount,\n            0,\n            price,\n            block.timestamp\n        ));\n        \n        uint i = orders.length > 0 ? orders.length - 1 : 0;\n        while(i > 0) {\n            if(side == Side.BUY && orders[i - 1].price > orders[i].price) {\n                break;   \n            }\n            if(side == Side.SELL && orders[i - 1].price < orders[i].price) {\n                break;   \n            }\n            Order memory order = orders[i - 1];\n            orders[i - 1] = orders[i];\n            orders[i] = order;\n            i--;\n        }\n        nextOrderId++;\n    }\n    \n    function createMarketOrder(\n        bytes32 ticker,\n        uint amount,\n        Side side)\n        tokenExist(ticker)\n        tokenIsNotDai(ticker)\n        external {\n        if(side == Side.SELL) {\n            require(\n                traderBalances[msg.sender][ticker] >= amount, \n                'token balance too low'\n            );\n        }\n        Order[] storage orders = orderBook[ticker][uint(side == Side.BUY ? Side.SELL : Side.BUY)];\n        uint i;\n        uint remaining = amount;\n        \n        while(i < orders.length && remaining > 0) {\n            uint available = orders[i].amount - orders[i].filled;\n            uint matched = (remaining > available) ? available : remaining;\n            remaining -= matched;\n            orders[i].filled += matched;\n            emit NewTrade(\n                nextTradeId,\n                orders[i].id,\n                ticker,\n                orders[i].trader,\n                msg.sender,\n                matched,\n                orders[i].price,\n                block.timestamp\n            );\n            if(side == Side.SELL) {\n                traderBalances[msg.sender][ticker] -= matched;\n                traderBalances[msg.sender][DAI] += matched*orders[i].price;\n                traderBalances[orders[i].trader][ticker] += matched;\n                traderBalances[orders[i].trader][DAI] -= matched*orders[i].price;\n            }\n            if(side == Side.BUY){\n                require(\n                    traderBalances[msg.sender][DAI] >= matched * orders[i].price,\n                    \"dai balance too low\"\n                );\n\n                traderBalances[msg.sender][ticker] += matched;\n                traderBalances[msg.sender][DAI] -= matched*orders[i].price;\n                traderBalances[orders[i].trader][ticker] -= matched;\n                traderBalances[orders[i].trader][DAI] += matched*orders[i].price;\n            }\n            nextTradeId++;\n            i++;\n        }\n        \n        i = 0;\n        while(i < orders.length && orders[i].filled == orders[i].amount) {\n            for(uint j = i; j < orders.length - 1; j++ ) {\n                orders[j] = orders[j + 1];\n            }\n            orders.pop();\n            i++;\n        }\n    }\n   \n    modifier tokenIsNotDai(bytes32 ticker) {\n       require(ticker != DAI, 'cannot trade DAI');\n       _;\n    }     \n    \n    modifier tokenExist(bytes32 ticker) {\n        require(\n            tokens[ticker].tokenAddress != address(0),\n            'this token does not exist'\n        );\n        _;\n    }\n    \n    modifier onlyAdmin() {\n        require(msg.sender == admin, 'only admin');\n        _;\n    }\n}",
  "sourcePath": "E:\\zubaid\\Blockchain\\DEx\\DEx\\contracts\\Dex.sol",
  "compiler": {
    "name": "solc",
    "version": "0.8.10+commit.fc410830.Emscripten.clang"
  },
  "schemaVersion": "3.4.4",
  "updatedAt": "2022-02-01T05:33:23.400Z",
  "devdoc": {
    "kind": "dev",
    "methods": {},
    "version": 1
  },
  "userdoc": {
    "kind": "user",
    "methods": {},
    "version": 1
  }
}